:0200000080314D
:100033001149118780FE75800E117AB10075800C0D
:10004300117AB10080F0758038117A712475803887
:10005300117A7124758006117A712475800E117AD4
:100063007124758001117A712422C2A7C2A6D2A578
:10007300D2A7711BC2A722C2A7C2A6C2A5D2A771CB
:100083001BC2A7229003007B10E493F580116D71CE
:1000930024A31BEB6006E493B400EE227580C01129
:0500A3007A712480F1D8
:1003000055544650522032303138204C7563617359
:10031000204775696C6865726D6500780F790FD933
:0D032000FED8FA2278FF79FFD9FED8FA2224
:0E0500007D087EC87FF8DFFE00DEF9DDF52203
:00000001FF
