:03000000020200F9
:0600030020B2FDC2A8328C
:10020000B108B14EB19575B0FFC2A0C2A1C2A2C2E1
:10021000A37D00D2A475B00F30B00B30B11B30A459
:100220002B30B33B80EDC2A475B0F430B45C30B574
:100230006130B66630B73B80EDC2A475B0F430B41F
:100240006130B56630B66B30B73080EDC2A475B0A2
:10025000F430B46630B56B30B67030B77580EDC22F
:10026000A475B0F430B47B30B51830B67D30B76AC1
:1002700080EDB1A630B7FB020309B1A630B7FB028F
:10028000030CB1A630B5FB020315B1A630B4FB02D6
:100290000325B1A630B5FB020335B1A630B6FB028B
:1002A0000345B1A630B4FB020355B1A630B5FB023D
:1002B0000365B1A630B6FB020375B1A630B4FB02EC
:1002C0000385B1A630B5FB020395B1A630B6FB029B
:1002D00003A5B1A630B7FB02030FB1A630B7FB02EE
:1002E0000312B1A630B4FB020306B1A630B6FB027E
:1002F00003B5D2A475B00F30B30280F6C2A475B0B6
:10030000F430B4DE80F6020200020213020213028D
:100310000213020213ED75F00AA42400FD7580306B
:10032000B12C020213ED75F00AA42401FD75803191
:10033000B12C020213ED75F00AA42402FD7580327F
:10034000B12C020213ED75F00AA42403FD7580336D
:10035000B12C020213ED75F00AA42404FD7580345B
:0C036000B12C020213ED75F00AA4240574
:10036C00FD758035B12C020213ED75F00AA424063C
:10037C00FD758036B12C020213ED75F00AA424072A
:10038C00FD758037B12C020213ED75F00AA4240818
:10039C00FD758038B12C020213ED75F00AA4240906
:1003AC00FD758039B12C020213BD0007B16EB1C0CE
:1003BC00020200ED600A75F0FF84600BE5F0600747
:1003CC00B16EB1C0020200B108B156B195B15ED2A6
:1003DC00A475B00F30B00530B10C80F3C2A475B069
:1003EC00F430B70C80F6C2A475B0F430B70A80F6BE
:1003FC00B1A630B7FB02040CB1A630B7FB02040F58
:10040C00020412020420B108912EB166785F916843
:10041C00DDF4803FB108912EB166785F918DDDF4EB
:10042C008031ED75F06484FC85F07FE57F75F00A12
:10043C0084FBAAF0EC2430FCEB2430FBEA2430FAE9
:10044C008C80B12CB1A68B80B12CB1A68A80B12C3A
:10045C00B1A622B108B176B1C00202F2B1AFC2A00E
:10046C00C2A1C2A2C2A3B1AFC2A0D2A3B1AFC2A358
:10047C00D2A2B1AFC2A2D2A1B1AFC2A1D2A0D8DCDC
:10048C0022B1AFC2A0C2A1C2A2C2A3B1AFC2A3D2B9
:03049C00A0B1AF5D
:10049F00C2A0D2A1B1AFC2A1D2A2B1AFC2A2D2A308
:1004AF00D8DC22B1AFC2A0C2A1C2A2C2A3B1AFD247
:1004BF00A3B1AFD2A2B1AFC2A3B1AFD2A1B1AFC2FC
:1004CF00A2B1AFD2A0B1AFC2A1B1AFD2A322B1AF8F
:1004DF00C2A0C2A1C2A2C2A3B1AFD2A0B1AFD2A1DA
:1004EF00B1AFC2A0B1AFD2A2B1AFC2A1B1AFD2A3CF
:1004FF00B1AFC2A2B1AFD2A022758038B139B1A6C7
:10050F00758038B139B1A6758006B139B1A675803D
:10051F000EB139B1A6758001B139B1A622C2A7C2F9
:10052F00A6D2A5D2A7B19DC2A722C2A7C2A6C2A515
:10053F00D2A7B19DC2A7229009007C1080392290CA
:10054F0009007C108031229009117C1080292290A3
:10055F0009207C1080212290093B7C108019229069
:10056F00092A7C108011229009497C108009229061
:10057F0009537C10800122E493F580B12CB1A6A31E
:10058F00E493B400F2227580C0B139B1A6227E0F78
:10059F007F0FDFFEDEFA227EFF7FFFDFFEDEFA2215
:1005AF007FFF7E0879017E087FFADFFEDEFAD9F63B
:0305BF00227FFA9E
:0F05C2007EFA79087EFA7FFADFFEDEFAD9F6229A
:10090000446967697465206F206E756D65726F3A12
:100910000053656E7469646F3A20413D486F720000
:10092000423D416E742D486F720056616C6F7220AB
:10093000696E76616C69646F20200020706172615D
:10094000206163616261722E0020202020202046F9
:10095000494D00494E544552524F4D5049444F2E37
:00000001FF
