:02000000802E50
:10003000757F00757E00757D00757C00757B007591
:100040007A0075790075780075770011FE313C31C2
:100050005B314475B0FF75B00F30B00B30B1133069
:10006000B21E30B32980EF75B0F030B42630B67EC2
:1000700080F575B0F030B47630B57330B67080F27C
:1000800075B0F030B46830B56530B66280F275B0E6
:10009000F080FB11FE9009197C10314C315B900906
:1000A0008E7C10314C857FF07401A475F00A84FABF
:1000B000ABF0E57F75F00A84F8A9F0E82430F8E9A0
:1000C0002430F9EA2430FAEB2430FB88803122F125
:1000D0000989803122F10975803D3122F1098A8038
:1000E0003122F1098B803122F109057F115675808B
:1000F0000E312FB10075800C312FB10080F075806A
:1001000038312FF109758038312FF10975800631AA
:100110002FF10975800E312FF109758001312FF112
:100120000922C2A7C2A6D2A5D2A7F100C2A722C2A5
:10013000A7C2A6C2A5D2A7F100C2A7229009007C3F
:10014000108009229009087C10800122E493F58038
:100150003122F109A3E493B400F2227580C0312F5B
:03016000F1092280
:100700007E0F7F0FDFFEDEFA227EFF7FFFDFFEDE41
:10071000FA227D057EC87FF8DFFE00DEF9DDF522D6
:0E0720007D087EC87FF8DFFE00DEF9DDF522E1
:10090000426F6D2064696100417065727465207585
:100910006D61207465636C6100546162756164612E
:1009200020646F2031005461627561646120646FDE
:100930002032005461627561646120646F2033006D
:100940005461627561646120646F20340054616297
:100950007561646120646F20350054616275616463
:100960006120646F203600546162756164612064A7
:100970006F2037005461627561646120646F2038B4
:10098000005461627561646120646F2039003178C0
:1009900000327800337800347800357800367800FB
:0909A0003778003878003978003E
:00000001FF
