:02000000803E40
:10004000757F00757E00757D00757C00757B007581
:100050007A0075790075780075770091B791F5B1E0
:100060001491FD75B0FFC2A175B00F30B00830B16A
:100070001330B21E80F275B0F030B42930B52E3096
:10008000B63380F275B0F030B43330B53830B63DA9
:1000900080F275B0F030B43D30B54230B64780F2F2
:1000A00075B0F080FBB12530B4FB0200EDB1253016
:1000B000B5FB020157B12530B6FB0201C1B12530B5
:1000C000B4FB02022BB12530B5FB020295B12530FD
:1000D000B6FB0202FFB12530B4FB020369B1253043
:1000E000B5FB0203D3B12530B6FB02043D91B790B6
:1000F00009197C10B105B11490098E7C10B10585E9
:100100007FF07401A475F00A84FAABF0E57F75F016
:100110000A84F8A9F0E82430F8E92430F9EA243018
:10012000FAEB2430FB888091DBB125898091DBB12B
:100130002575803D91DBB1258A8091DBB1258B80CF
:1001400091DBB125057FE57FB40B09D2A1B12EC2A9
:10015000A1757F0002006891B79009267C10B10557
:10016000B1149009917C10B105857EF07402A475DC
:10017000F00A84FAABF0E57E75F00A84F8A9F0E89D
:0C0180002430F8E92430F9EA2430FAEBCE
:10018C002430FB888091DBB125898091DBB125750A
:10019C00803D91DBB1258A8091DBB1258B8091DB91
:1001AC00B125057EE57EB40B09D2A1B12EC2A17595
:1001BC007E0002006891B79009337C10B105B11430
:1001CC009009947C10B105857DF07400A475F00A3B
:1001DC0084FAABF0E57D75F00A84F8A9F0E82430D8
:1001EC00F8E92430F9EA2430FAEB2430FB888091CA
:1001FC00DBB125898091DBB12575803D91DBB12583
:10020C008A8091DBB1258B8091DBB125057DE57D65
:10021C00B40B09D2A1B12EC2A1757D000200689168
:10022C00B79009407C10B105B1149009977C10B1BE
:10023C0005857CF07404A475F00A84FAABF0E57CB7
:10024C0075F00A84F8A9F0E82430F8E92430F9EACA
:10025C002430FAEB2430FB888091DBB12589809126
:10026C00DBB12575803D91DBB1258A8091DBB12511
:10027C008B8091DBB125057CE57CB40B09D2A1B157
:10028C002EC2A1757C0002006891B790094D7C10BC
:10029C00B105B11490099A7C10B105857BF07405F9
:0802AC00A475F00A84FAABF01E
:1002B400E57B75F00A84F8A9F0E82430F8E92430E5
:1002C400F9EA2430FAEB2430FB888091DBB12589EC
:1002D4008091DBB12575803D91DBB1258A8091DB6E
:1002E400B1258B8091DBB125057BE57BB40B09D26D
:1002F400A1B12EC2A1757B0002006891B790095A82
:100304007C10B105B11490099D7C10B105857AF07B
:100314007406A475F00A84FAABF0E57A75F00A84E1
:10032400F8A9F0E82430F8E92430F9EA2430FAEBAB
:100334002430FB888091DBB125898091DBB1257560
:10034400803D91DBB1258A8091DBB1258B8091DBE7
:10035400B125057AE57AB40B09D2A1B12EC2A175F3
:100364007A0002006891B79009677C10B105B11456
:100374009009A07C10B1058579F07407A475F00A82
:1003840084FAABF0E57975F00A84F8A9F0E8243032
:10039400F8E92430F9EA2430FAEB2430FB88809120
:1003A400DBB125898091DBB12575803D91DBB125D9
:1003B4008A8091DBB1258B8091DBB1250579E579C4
:0F03C400B40B09D2A1B12EC2A175790002006855
:1003D30091B79009747C10B105B1149009A37C10F6
:1003E300B1058578F07408A475F00A84FAABF0E5DA
:1003F3007875F00A84F8A9F0E82430F8E92430F994
:10040300EA2430FAEB2430FB888091DBB125898024
:1004130091DBB12575803D91DBB1258A8091DBB1FC
:10042300258B8091DBB1250578E578B40B09D2A142
:10043300B12EC2A175780002006891B79009817C42
:1004430010B105B1149009A67C10B1058577F0743D
:1004530009A475F00A84FAABF0E57775F00A84F81D
:10046300A9F0E82430F8E92430F9EA2430FAEB243F
:1004730030FB888091DBB125898091DBB1257580C4
:100483003D91DBB1258A8091DBB1258B8091DBB176
:10049300250577E577B40B09D2A1B12EC2A17577F3
:1004A3000002006875800E91E8B10075800C91E838
:1004B300B10080F075803891E8B12575803891E8F6
:1004C300B12575800691E8B12575800E91E8B125B7
:1004D30075800191E8B12522C2A7C2A6D2A5D2A7F1
:1004E300B11CC2A722C2A7C2A6C2A5D2A7B11CC271
:0904F300A7229009007C10800989
:1004FC00229009087C10800122E493F58091DBB1F5
:10050C0025A3E493B400F2227580C091E8B12522B2
:10051C007E0F7F0FDFFEDEFA227EFF7FFFDFFEDE27
:10052C00FA227D3C7EC87FF8DFFE00DEF9DDF52285
:10090000426F6D2064696100417065727465207585
:100910006D61207465636C6100546162756164612E
:1009200020646F2031005461627561646120646FDE
:100930002032005461627561646120646F2033006D
:100940005461627561646120646F20340054616297
:100950007561646120646F20350054616275616463
:100960006120646F203600546162756164612064A7
:100970006F2037005461627561646120646F2038B4
:10098000005461627561646120646F2039003178C0
:1009900000327800337800347800357800367800FB
:0909A0003778003878003978003E
:00000001FF
