:02000000803E40
:10004000757F00757E00757D00757C00757B007581
:100050007A00757900757800757700916991A7919C
:10006000C691AF75B0FF75B00F30B00B30B1163020
:10007000B22130B32C80EF75B0F030B42930B529FF
:1000800030B62980F275B0F030B42430B52430B6E3
:100090002480F275B0F030B41F30B51F30B61F8029
:1000A000F275B0F080FB0200C102012702018D024F
:1000B00001F30202590202BF02032502038B02036D
:1000C000F1E57FB40A05757F001166916990091901
:1000D0007C1091B791C690098E7C1091B7857FF006
:1000E0007401A475F00A84FAABF0E57F75F00A8418
:1000F000F8A9F0E82430F8E92430F9EA2430FAEBE2
:100100002430FB8880918D91D78980918D91D7750E
:10011000803D918D91D78A80918D91D78B80918DE3
:1001200091D7057F020066E57EB40A05757E001151
:100130006691699009267C1091B791C69009917CCF
:100140001091B7857EF07402A475F00A84FAABF0C2
:10015000E57E75F00A84F8A9F0E82430F8E9243047
:10016000F9EA2430FAEB2430FB8880918D91D7890D
:1001700080918D91D775803D918D91D78A80918D99
:0601800091D78B80918DE8
:1001860091D7057E020066E57DB40A05757D0011EE
:100196006691699009337C1091B791C69009947C59
:1001A6001091B7857DF07400A475F00A84FAABF05F
:1001B600E57D75F00A84F8A9F0E82430F8E92430E2
:1001C600F9EA2430FAEB2430FB8880918D91D789A7
:1001D60080918D91D775803D918D91D78A80918D33
:1001E60091D78B80918D91D7057B020066E57CB413
:1001F6000A05757C00116691699009407C1091B7DB
:1002060091C69009977C1091B7857CF07404A4750B
:10021600F00A84FAABF0E57C75F00A84F8A9F0E8F8
:100226002430F8E92430F9EA2430FAEB2430FB884C
:1002360080918D91D78980918D91D775803D918DD3
:1002460091D78A80918D91D78B80918D91D7057C9E
:10025600020066E57BB40A05757B0011669169901C
:10026600094D7C1091B791C690099A7C1091B7857B
:100276007BF07405A475F00A84FAABF0E57B75F0A3
:100286000A84F8A9F0E82430F8E92430F9EA2430A1
:0F029600FAEB2430FB8880918D91D78980918D70
:1002A50091D775803D918D91D78A80918D91D78B0E
:1002B50080918D91D7057B020066E57AB40A0575B4
:1002C5007A001166916990095A7C1091B791C69090
:1002D500099D7C1091B7857AF07406A475F00A849F
:1002E500FAABF0E57A75F00A84F8A9F0E82430F85D
:1002F500E92430F9EA2430FAEB2430FB8880918D2B
:1003050091D78980918D91D775803D918D91D78AAF
:1003150080918D91D78B80918D91D7057A0200665A
:10032500E579B40A05757900116691699009677CCC
:100335001091B791C69009A07C1091B78579F0749A
:1003450007A475F00A84FAABF0E57975F00A84F82C
:10035500A9F0E82430F8E92430F9EA2430FAEB244E
:1003650030FB8880918D91D78980918D91D775804B
:100375003D918D91D78A80918D91D78B80918D916B
:10038500D70579020066E578B40A05757800116627
:1003950091699009747C1091B791C69009A37C105E
:1003A50091B78578F07408A475F00A84FAABF0E586
:1003B5007875F00A84F8A9F0E82430F8E92430F9D2
:0303C500EA2430F7
:1003C800FAEB2430FB8880918D91D78980918D91AB
:1003D800D775803D918D91D78A80918D91D78B80EB
:1003E800918D91D70578020066E577B40A0775778D
:1003F80000D2A0116691699009817C1091B791C6CD
:100408009009A67C1091B78577F07409A475F00A55
:1004180084FAABF0E57775F00A84F8A9F0E824309F
:10042800F8E92430F9EA2430FAEB2430FB8880918B
:100438008D91D78980918D91D775803D918D91D778
:100448008A80918D91D78B80918D91D70577020005
:100458006675800E919AB10075800C919AB10080F2
:10046800F0758038919A91D7758038919A91D7759F
:100478008006919A91D775800E919A91D7758001CF
:10048800919A91D722C2A7C2A6D2A5D2A791CEC2CD
:10049800A722C2A7C2A6C2A5D2A791CEC2A7229060
:1004A80009007C108009229009087C10800122E450
:1004B80093F580918D91D7A3E493B400F2227580CF
:1004C800C0919A91D7227E0F7F0FDFFEDEFA227E3F
:1004D800FF7FFFDFFEDEFA227D087EC87FF8DFFEA1
:0304E80000DEF93A
:0304EB00DDF5221A
:10090000426F6D2064696100417065727465207585
:100910006D61207465636C6100546162756164612E
:1009200020646F2031005461627561646120646FDE
:100930002032005461627561646120646F2033006D
:100940005461627561646120646F20340054616297
:100950007561646120646F20350054616275616463
:100960006120646F203600546162756164612064A7
:100970006F2037005461627561646120646F2038B4
:10098000005461627561646120646F2039003178C0
:1009900000327800337800347800357800367800FB
:0909A0003778003878003978003E
:00000001FF
