:03000000020200F9
:0C000300C0E0C0D075D008D0D0D0E032F2
:10001000200009D200D2A28C8CC28D32C200C2A2B2
:0900200074FFC39CF58CC28D3203
:10020000D2A8D28AD2A9D28CD2AF71C67800790096
:100210007A007B007C007D007E007F007188911257
:10022000914E9136D2A475B00F30B00B30B11B3067
:10023000A42B30B33B80EDC2A475B0F430B45C3075
:10024000B56130B66630B73B80EDC2A475B0F4300E
:10025000B46130B56630B66B30B73080EDC2A4758E
:10026000B0F430B46630B56B30B67030B77580ED31
:10027000C2A475B0F430B47B30B51830B67D30B759
:100280006A80ED915F30B7FB020303915F30B7FBEB
:10029000020385915F30B5FB02031A915F30B4FB16
:1002A000020327915F30B5FB020334915F30B6FB48
:1002B000020341915F30B4FB02034E915F30B5FB06
:1002C00002035B915F30B6FB020376915F30B4FBB3
:1002D000020379915F30B5FB02037C915F30B6FB7E
:1002E00002037F915F30B7FB020382915F30B7FB5F
:1002F00002030E915F30B4FB02036F915F30B6FBD7
:10030000020368915F74022CFC71D0020224915F99
:10031000ECC39402FC71D00202247188912D914E9D
:100320007C0071D10202247188912D914E7C337131
:10033000D10202247188912D914E7C6671D1020206
:10034000247188912D914E7C9971D102022471887B
:10035000912D914E7CCC71D10202247188912D9106
:050360004E7CFF71D18D
:10036500020224D2A0C2A1020224C2A0D2A102028A
:10037500240202240202240202240202240202248C
:1003850002022475803871B9915F75803871B99111
:100395005F75800671B9915F75800E71B9915F7552
:1003A500800171B9915F22C2A7C2A6D2A5D2A79139
:1003B50056C2A722C2A7C2A6C2A5D2A79156C2A756
:1003C50022D2A0D2A17589007C00222290094D7508
:1003D5007C10913FEC75F06484FC85F07DE57D75BE
:1003E500F00A84FAA9F0EB2430FBEA2430FAE92478
:1003F50030F98B8071AC915F8A8071AC915F898097
:1004050071AC915F900948757C10913F229009006D
:10041500757C1080252290091E757C10801C229009
:10042500092A757C1080132290093A757C10800A80
:100435002290090D757C10800122E493F58071AC42
:10044500915FA3E493B400F2227580C071B9915F06
:10045500227E0F7F0FDFFEDEFA227EFF7FFFDFFEAB
:10046500DEFA227FFA7EFA7D087EFA7FFADFFEDE6B
:04047500FADDF62294
:100900004D4F544F522050415241444F0053656C5B
:1009100065632056656C20652053656E74005365D1
:100920006E7469646F20486F720053656E746964F9
:100930006F20416E742D486F720056656C6F63694D
:1009400064616465203D20002F3235350056656CAA
:04095000203D200026
:00000001FF
