:02000000803E40
:10004000757F00757E00757D00757C00757B007581
:100050007A00757900757800757700919D91DB9134
:10006000FA91E375B0FF75B00F30B00B30B11630B8
:10007000B22130B32C80EF75B0F030B42930B529FF
:1000800030B72980F275B0F030B42430B52430B7E1
:100090002480F275B0F030B41F30B51F30B71F8028
:1000A000F275B0F080FB0200C102012D020199023D
:1000B00002050202710202DD0203490203B50204D5
:1000C00021E57FB40B0B757F00D2A0B114C2A01143
:1000D00066919D9009197C1091EB91FA90098E7CA4
:1000E0001091EB857FF07401A475F00A84FAABF0EF
:1000F000E57F75F00A84F8A9F0E82430F8E92430A7
:10010000F9EA2430FAEB2430FB888091C1B10B89E5
:100110008091C1B10B75803D91C1B10B8A8091C1B5
:10012000B10B8B8091C1B10B057F020066E57EB4F7
:100130000B0B757E00D2A0B114C2A01166919D90E8
:1001400009267C1091EB91FA9009917C1091EB8536
:100150007EF07402A475F00A84FAABF0E57E75F0C7
:100160000A84F8A9F0E82430F8E92430F9EA2430C8
:10017000FAEB2430FB888091C1B10B898091C1B129
:060180000B75803D91C1EA
:10018600B10B8A8091C1B10B8B8091C1B10B057EF9
:10019600020066E57DB40B0B757D00D2A0B114C2DA
:1001A600A01166919D9009337C1091EB91FA90090C
:1001B600947C1091EB857DF07400A475F00A84FAA6
:1001C600ABF0E57D75F00A84F8A9F0E82430F8E98B
:1001D6002430F9EA2430FAEB2430FB888091C1B14F
:1001E6000B898091C1B10B75803D91C1B10B8A809D
:1001F60091C1B10B8B8091C1B10B057B020066E505
:100206007CB40B0B757C00D2A0B114C2A011669110
:100216009D9009407C1091EB91FA9009977C109182
:10022600EB857CF07404A475F00A84FAABF0E57CE7
:1002360075F00A84F8A9F0E82430F8E92430F9EAE0
:100246002430FAEB2430FB888091C1B10B89809170
:10025600C1B10B75803D91C1B10B8A8091C1B10BC3
:100266008B8091C1B10B057C020066E57BB40B0B5C
:10027600757B00D2A0B114C2A01166919D90094D64
:100286007C1091EB91FA90099A7C1091EB857BF0AA
:100296007405A475F00A84FAABF0E57B75F00A8460
:0602A600F8A9F0E8243085
:1002AC00F8E92430F9EA2430FAEB2430FB88809109
:1002BC00C1B10B898091C1B10B75803D91C1B10B5E
:1002CC008A8091C1B10B8B8091C1B10B057B02006F
:1002DC0066E57AB40B0B757A00D2A0B114C2A011EA
:1002EC0066919D90095A7C1091EB91FA90099D7C36
:1002FC001091EB857AF07406A475F00A84FAABF0D1
:10030C00E57A75F00A84F8A9F0E82430F8E924308D
:10031C00F9EA2430FAEB2430FB888091C1B10B89C7
:10032C008091C1B10B75803D91C1B10B8A8091C197
:10033C00B10B8B8091C1B10B057A020066E579B4E3
:10034C000B0B757900D2A0B114C2A01166919D90CF
:10035C0009677C1091EB91FA9009A07C1091EB85C8
:10036C0079F07407A475F00A84FAABF0E57975F0AE
:10037C000A84F8A9F0E82430F8E92430F9EA2430AA
:10038C00FAEB2430FB888091C1B10B898091C1B10B
:10039C000B75803D91C1B10B8A8091C1B10B8B80E3
:1003AC0091C1B10B0579020066E578B40B0B757839
:1003BC0000D2A0B114C2A01166919D9009747C105A
:0203CC0091EBB3
:1003CE0091FA9009A37C1091EB8578F07408A475CE
:1003DE00F00A84FAABF0E57875F00A84F8A9F0E833
:1003EE002430F8E92430F9EA2430FAEB2430FB8883
:1003FE008091C1B10B898091C1B10B75803D91C1C6
:10040E00B10B8A8091C1B10B8B8091C1B10B057874
:10041E00020066E577B40B0B757700D2A0B114C25B
:10042E00A01166919D9009817C1091EB91FA900933
:10043E00A67C1091EB8577F07409A475F00A84FA06
:10044E00ABF0E57775F00A84F8A9F0E82430F8E906
:10045E002430F9EA2430FAEB2430FB888091C1B1C4
:10046E000B898091C1B10B75803D91C1B10B8A8012
:10047E0091C1B10B8B8091C1B10B057702006675EE
:10048E00800E91CEB10075800C91CEB10080F075CA
:10049E00803891CEB10B75803891CEB10B75800638
:1004AE0091CEB10B75800E91CEB10B75800191CEB0
:1004BE00B10B22C2A7C2A6D2A5D2A7B102C2A72251
:1004CE00C2A7C2A6C2A5D2A7B102C2A72290090096
:1004DE007C108009229009087C10800122E493F59B
:0304EE008091C139
:1004F100B10BA3E493B400F2227580C091CEB10B8D
:10050100227E0F7F0FDFFEDEFA227EFF7FFFDFFEFE
:10051100DEFA227D1E7EC87FF8DFFE00DEF9DDF502
:0105210022B7
:10090000426F6D2064696100417065727465207585
:100910006D61207465636C6100546162756164612E
:1009200020646F2031005461627561646120646FDE
:100930002032005461627561646120646F2033006D
:100940005461627561646120646F20340054616297
:100950007561646120646F20350054616275616463
:100960006120646F203600546162756164612064A7
:100970006F2037005461627561646120646F2038B4
:10098000005461627561646120646F2039003178C0
:1009900000327800337800347800357800367800FB
:0909A0003778003878003978003E
:00000001FF
